{
  "contractName": "TransactionList",
  "abi": [
    {
      "inputs": [],
      "payable": false,
      "stateMutability": "nonpayable",
      "type": "constructor"
    },
    {
      "anonymous": false,
      "inputs": [
        {
          "indexed": false,
          "internalType": "string",
          "name": "transactionId",
          "type": "string"
        },
        {
          "indexed": false,
          "internalType": "string",
          "name": "senderId",
          "type": "string"
        },
        {
          "indexed": false,
          "internalType": "string",
          "name": "senderBankId",
          "type": "string"
        },
        {
          "indexed": false,
          "internalType": "string",
          "name": "recieverId",
          "type": "string"
        },
        {
          "indexed": false,
          "internalType": "string",
          "name": "recieverBankId",
          "type": "string"
        },
        {
          "indexed": false,
          "internalType": "string",
          "name": "amount",
          "type": "string"
        },
        {
          "indexed": false,
          "internalType": "uint256",
          "name": "taskNumber",
          "type": "uint256"
        }
      ],
      "name": "TransactionCreated",
      "type": "event"
    },
    {
      "constant": true,
      "inputs": [],
      "name": "transactionCount",
      "outputs": [
        {
          "internalType": "uint256",
          "name": "",
          "type": "uint256"
        }
      ],
      "payable": false,
      "stateMutability": "view",
      "type": "function"
    },
    {
      "constant": true,
      "inputs": [
        {
          "internalType": "uint256",
          "name": "",
          "type": "uint256"
        }
      ],
      "name": "transactions",
      "outputs": [
        {
          "internalType": "string",
          "name": "transactionId",
          "type": "string"
        },
        {
          "internalType": "string",
          "name": "senderId",
          "type": "string"
        },
        {
          "internalType": "string",
          "name": "recieverId",
          "type": "string"
        },
        {
          "internalType": "string",
          "name": "senderBankId",
          "type": "string"
        },
        {
          "internalType": "string",
          "name": "recieverBankId",
          "type": "string"
        },
        {
          "internalType": "string",
          "name": "amount",
          "type": "string"
        }
      ],
      "payable": false,
      "stateMutability": "view",
      "type": "function"
    },
    {
      "constant": false,
      "inputs": [
        {
          "internalType": "string",
          "name": "_transactionId",
          "type": "string"
        },
        {
          "internalType": "string",
          "name": "_senderId",
          "type": "string"
        },
        {
          "internalType": "string",
          "name": "_senderBankId",
          "type": "string"
        },
        {
          "internalType": "string",
          "name": "_recieverId",
          "type": "string"
        },
        {
          "internalType": "string",
          "name": "_recieverBankId",
          "type": "string"
        },
        {
          "internalType": "string",
          "name": "_amount",
          "type": "string"
        }
      ],
      "name": "createTransaction",
      "outputs": [],
      "payable": false,
      "stateMutability": "nonpayable",
      "type": "function"
    }
  ],
  "bytecode": "0x60806040523480156200001157600080fd5b506040805161010081018252600160c082018181527f310000000000000000000000000000000000000000000000000000000000000060e084015282528251808401845260028082527f3131000000000000000000000000000000000000000000000000000000000000602083810191909152808501929092528451808601865260038082527f31313200000000000000000000000000000000000000000000000000000000008285015285870191909152855180870187528181527f3232310000000000000000000000000000000000000000000000000000000000818501526060860152855180870187529182527f3232000000000000000000000000000000000000000000000000000000000000828401526080850191909152845180860190955284527f31303000000000000000000000000000000000000000000000000000000000008482015260a08301939093526000805282528051805191927fa6eef7e35abe7026729641147f7915573c7e97b47efa546f5f6e3230263bcb4992620001a2928492019062000243565b506020828101518051620001bd926001850192019062000243565b5060408201518051620001db91600284019160209091019062000243565b5060608201518051620001f991600384019160209091019062000243565b50608082015180516200021791600484019160209091019062000243565b5060a082015180516200023591600584019160209091019062000243565b5050600160005550620002e8565b828054600181600116156101000203166002900490600052602060002090601f016020900481019282601f106200028657805160ff1916838001178555620002b6565b82800160010185558215620002b6579182015b82811115620002b657825182559160200191906001019062000299565b50620002c4929150620002c8565b5090565b620002e591905b80821115620002c45760008155600101620002cf565b90565b610e4380620002f86000396000f3fe608060405234801561001057600080fd5b506004361061005d577c0100000000000000000000000000000000000000000000000000000000600035046363ec63a681146100625780639ace38c2146103ad578063b77bf60014610640575b600080fd5b6103ab600480360360c081101561007857600080fd5b81019060208101813564010000000081111561009357600080fd5b8201836020820111156100a557600080fd5b803590602001918460018302840111640100000000831117156100c757600080fd5b91908080601f016020809104026020016040519081016040528093929190818152602001838380828437600092019190915250929594936020810193503591505064010000000081111561011a57600080fd5b82018360208201111561012c57600080fd5b8035906020019184600183028401116401000000008311171561014e57600080fd5b91908080601f01602080910402602001604051908101604052809392919081815260200183838082843760009201919091525092959493602081019350359150506401000000008111156101a157600080fd5b8201836020820111156101b357600080fd5b803590602001918460018302840111640100000000831117156101d557600080fd5b91908080601f016020809104026020016040519081016040528093929190818152602001838380828437600092019190915250929594936020810193503591505064010000000081111561022857600080fd5b82018360208201111561023a57600080fd5b8035906020019184600183028401116401000000008311171561025c57600080fd5b91908080601f01602080910402602001604051908101604052809392919081815260200183838082843760009201919091525092959493602081019350359150506401000000008111156102af57600080fd5b8201836020820111156102c157600080fd5b803590602001918460018302840111640100000000831117156102e357600080fd5b91908080601f016020809104026020016040519081016040528093929190818152602001838380828437600092019190915250929594936020810193503591505064010000000081111561033657600080fd5b82018360208201111561034857600080fd5b8035906020019184600183028401116401000000008311171561036a57600080fd5b91908080601f01602080910402602001604051908101604052809392919081815260200183838082843760009201919091525092955061065a945050505050565b005b6103ca600480360360208110156103c357600080fd5b50356109f1565b6040518080602001806020018060200180602001806020018060200187810387528d818151815260200191508051906020019080838360005b8381101561041b578181015183820152602001610403565b50505050905090810190601f1680156104485780820380516001836020036101000a031916815260200191505b5087810386528c5181528c516020918201918e019080838360005b8381101561047b578181015183820152602001610463565b50505050905090810190601f1680156104a85780820380516001836020036101000a031916815260200191505b5087810385528b5181528b516020918201918d019080838360005b838110156104db5781810151838201526020016104c3565b50505050905090810190601f1680156105085780820380516001836020036101000a031916815260200191505b5087810384528a5181528a516020918201918c019080838360005b8381101561053b578181015183820152602001610523565b50505050905090810190601f1680156105685780820380516001836020036101000a031916815260200191505b5087810383528951815289516020918201918b019080838360005b8381101561059b578181015183820152602001610583565b50505050905090810190601f1680156105c85780820380516001836020036101000a031916815260200191505b5087810382528851815288516020918201918a019080838360005b838110156105fb5781810151838201526020016105e3565b50505050905090810190601f1680156106285780820380516001836020036101000a031916815260200191505b509c5050505050505050505050505060405180910390f35b610648610d6d565b60408051918252519081900360200190f35b6040805160c0810182528781526020808201889052818301879052606082018690526080820185905260a08201849052600080546001818101835590825282529290922081518051929391926106b39284920190610d73565b5060208281015180516106cc9260018501920190610d73565b50604082015180516106e8916002840191602090910190610d73565b5060608201518051610704916003840191602090910190610d73565b5060808201518051610720916004840191602090910190610d73565b5060a0820151805161073c916005840191602090910190610d73565b509050507f215ccbc8a528a394a06127982a839267269a845ba3d177bdab633461d3329ac58686868686866001600054036040518080602001806020018060200180602001806020018060200188815260200187810387528e818151815260200191508051906020019080838360005b838110156107c45781810151838201526020016107ac565b50505050905090810190601f1680156107f15780820380516001836020036101000a031916815260200191505b5087810386528d5181528d516020918201918f019080838360005b8381101561082457818101518382015260200161080c565b50505050905090810190601f1680156108515780820380516001836020036101000a031916815260200191505b5087810385528c5181528c516020918201918e019080838360005b8381101561088457818101518382015260200161086c565b50505050905090810190601f1680156108b15780820380516001836020036101000a031916815260200191505b5087810384528b5181528b516020918201918d019080838360005b838110156108e45781810151838201526020016108cc565b50505050905090810190601f1680156109115780820380516001836020036101000a031916815260200191505b5087810383528a5181528a516020918201918c019080838360005b8381101561094457818101518382015260200161092c565b50505050905090810190601f1680156109715780820380516001836020036101000a031916815260200191505b5087810382528951815289516020918201918b019080838360005b838110156109a457818101518382015260200161098c565b50505050905090810190601f1680156109d15780820380516001836020036101000a031916815260200191505b509d505050505050505050505050505060405180910390a1505050505050565b60016020818152600092835260409283902080548451600294821615610100026000190190911693909304601f8101839004830284018301909452838352928391830182828015610a835780601f10610a5857610100808354040283529160200191610a83565b820191906000526020600020905b815481529060010190602001808311610a6657829003601f168201915b505050505090806001018054600181600116156101000203166002900480601f016020809104026020016040519081016040528092919081815260200182805460018160011615610100020316600290048015610b215780601f10610af657610100808354040283529160200191610b21565b820191906000526020600020905b815481529060010190602001808311610b0457829003601f168201915b50505060028085018054604080516020601f6000196101006001871615020190941695909504928301859004850281018501909152818152959695945090925090830182828015610bb35780601f10610b8857610100808354040283529160200191610bb3565b820191906000526020600020905b815481529060010190602001808311610b9657829003601f168201915b5050505060038301805460408051602060026001851615610100026000190190941693909304601f8101849004840282018401909252818152949594935090830182828015610c435780601f10610c1857610100808354040283529160200191610c43565b820191906000526020600020905b815481529060010190602001808311610c2657829003601f168201915b5050505060048301805460408051602060026001851615610100026000190190941693909304601f8101849004840282018401909252818152949594935090830182828015610cd35780601f10610ca857610100808354040283529160200191610cd3565b820191906000526020600020905b815481529060010190602001808311610cb657829003601f168201915b5050505060058301805460408051602060026001851615610100026000190190941693909304601f8101849004840282018401909252818152949594935090830182828015610d635780601f10610d3857610100808354040283529160200191610d63565b820191906000526020600020905b815481529060010190602001808311610d4657829003601f168201915b5050505050905086565b60005481565b828054600181600116156101000203166002900490600052602060002090601f016020900481019282601f10610db457805160ff1916838001178555610de1565b82800160010185558215610de1579182015b82811115610de1578251825591602001919060010190610dc6565b50610ded929150610df1565b5090565b610e0b91905b80821115610ded5760008155600101610df7565b9056fea265627a7a723158201a6c39cfbd464988a1260eb095cfd5f869f692d5b5ae3a033caa63ce92c934c464736f6c63430005100032",
  "source": "pragma solidity >=0.4.22 <0.7.0;\r\ncontract TransactionList {\r\n    uint256 public transactionCount;\r\n\r\n    struct UserTransaction {\r\n        string transactionId;\r\n        string senderId;\r\n        string recieverId;\r\n        string senderBankId;\r\n        string recieverBankId;\r\n        string amount;\r\n    }\r\n\r\n    mapping(uint256 => UserTransaction) public transactions;\r\n\r\n    event TransactionCreated(string transactionId,string senderId , string senderBankId,string recieverId,string recieverBankId,string amount ,uint256 taskNumber);\r\n\r\n    constructor() public {\r\n        transactions[0]=UserTransaction(\"1\",\"11\",\"112\",\"221\",\"22\",\"100\");\r\n\r\n        transactionCount = 1;\r\n    }\r\n\r\n    function createTransaction(string memory _transactionId  , string memory _senderId,string memory _senderBankId,string memory _recieverId,string memory _recieverBankId,string memory _amount ) public {\r\n       \r\n        transactions[transactionCount++]=UserTransaction(_transactionId,_senderId,_senderBankId,_recieverId,_recieverBankId,_amount);\r\n       \r\n        emit TransactionCreated(_transactionId,_senderId,_senderBankId,_recieverId,_recieverBankId,_amount, transactionCount - 1);\r\n    }\r\n}",
  "sourcePath": "C:\\Users\\User\\Desktop\\Projects\\Payment\\payment\\contracts\\TransactionList.sol",
  "compiler": {
    "name": "solc",
    "version": "0.5.16+commit.9c3226ce.Emscripten.clang"
  },
  "schemaVersion": "3.4.10",
  "updatedAt": "2022-11-28T19:58:24.167Z",
  "devdoc": {
    "methods": {}
  },
  "userdoc": {
    "methods": {}
  }
}